:020000040800F2
:100000000000032045170008951700089517000801
:1000100095170008951700089517000800000000C4
:10002000000000000000000000000000951700081C
:10003000951700080000000095170008F913000844
:1000400095170008951700089517000895170008E0
:1000500095170008951700089517000895170008D0
:1000600095170008951700089517000895170008C0
:1000700095170008951700089517000895170008B0
:1000800095170008951700089517000895170008A0
:100090009517000895170008951700089517000890
:1000A0009517000895170008951700089517000880
:1000B0000514000895170008951700089517000803
:1000C0009517000895170008951700089517000860
:1000D0009517000895170008951700089517000850
:1000E0009517000895170008951700089517000840
:1000F0009517000895170008951700089517000830
:10010000951700089517000895170008951700081F
:10011000951700089517000895170008951700080F
:1001200095170008951700089517000895170008FF
:1001300095170008951700089517000895170008EF
:1001400095170008951700089517000895170008DF
:1001500095170008951700089517000895170008CF
:1001600095170008951700089517000895170008BF
:100170009517000895170008951700080000000063
:10018000951700089517000895170008951700089F
:10019000951700089517000895170008951700088F
:0C01A00095170008951700089517000837
:1001AC0010B5054C237833B9044B13B10448AFF3A5
:1001BC0000800123237010BD0C0000200000000003
:1001CC00F017000808B5034B1BB103490348AFF304
:1001DC00008008BD0000000010000020F01700088F
:1001EC0053B94AB9002908BF00281CBF4FF0FF3192
:1001FC004FF0FF3000F072B9ADF1080C6DE904CE90
:10020C0000F006F8DDF804E0DDE9022304B07047E5
:10021C002DE9F047089E04468846002B4BD18A42B4
:10022C00154667D9B2FA82F24AB1C2F1200701FA37
:10023C0002F320FA07F7954047EA030894404FEA87
:10024C00154E230CB8FBFEF71FFA85FC0EFB178826
:10025C0043EA084307FB0CF1994209D9EB1807F163
:10026C00FF3080F01B81994240F21881023F2B44F1
:10027C005B1AA4B2B3FBFEF00EFB103344EA03444A
:10028C0000FB0CFCA44509D92C1900F1FF3380F0BC
:10029C000781A44540F2048102382C4440EA07400F
:1002AC00A4EB0C0400271EB1D4400023C6E9004384
:1002BC003946BDE8F0878B4209D9002E00F0EB805F
:1002CC000027C6E9000138463946BDE8F087B3FA85
:1002DC0083F7002F47D18B4202D3824200F2FA807F
:1002EC00841A61EB030301209846002EE0D0C6E986
:1002FC000048DDE702B9FFDEB2FA82F2002A40F0D4
:10030C008F80491B4FEA154E1FFA85F80127B1FB68
:10031C00FEFC230C0EFB1C1143EA014308FB0CF101
:10032C00994207D9EB180CF1FF3002D2994200F236
:10033C00CD808446591AA3B2B1FBFEF00EFB10140B
:10034C0043EA044408FB00F8A04507D92C1900F136
:10035C00FF3302D2A04500F2B6801846A4EB080485
:10036C0040EA0C409FE7C7F1200CBB4022FA0CFE80
:10037C004EEA030E01FA07F420FA0CF521FA0CF3FD
:10038C004FEA1E482543B3FBF8F92C0C08FB193334
:10039C001FFA8EFA44EA034309FB0AF49C4202FA60
:1003AC0007F200FA07F10BD91EEB030309F1FF303A
:1003BC0080F087809C4240F28480A9F1020973444A
:1003CC001B1BADB2B3FBF8F008FB103345EA03443A
:1003DC0000FB0AFAA24508D91EEB040400F1FF3316
:1003EC006BD2A24569D90238744440EA0940A0FB9B
:1003FC000289A4EB0A044C45C2464B4654D351D057
:10040C00002E69D0B1EB0A0564EB030404FA0CFC72
:10041C00FD40FC404CEA0505C6E90054002747E7BF
:10042C00C2F1200320FA03F7954001FA02F021FAF9
:10043C0003F34FEA154E3843010CB3FBFEF71FFADA
:10044C0085F80EFB173341EA034107FB08F38B4297
:10045C0004FA02F407D9691807F1FF3C2FD28B423A
:10046C002DD9023F2944CB1A81B2B3FBFEF00EFB0F
:10047C00103341EA034100FB08F38B4207D969189A
:10048C0000F1FF3C17D28B4215D902382944C91A06
:10049C0040EA07473BE73746304609E70746E7E6B9
:1004AC001846FBE64145ABD2B8EB020A69EB0E02EB
:1004BC0001381346A4E76046E9E7184695E7674616
:1004CC00D1E781467CE702382C4447E7ACF1020CBB
:1004DC002B442FE7384608E73746E9E6704700BF5C
:1004EC0010B504460E4B18784FF47A73B3FBF0F347
:1004FC000C4A1068B0FBF3F000F096F868B90F2CBA
:10050C0001D901200AE0002221464FF0FF3000F013
:10051C0049F8034B5C60002000E0012010BD00BFD7
:10052C00000000200800002008B50B4B1A6842F4AC
:10053C0000721A601A6842F480621A601A6842F4F7
:10054C0080721A60032000F01BF80020FFF7C8FF30
:10055C0001F072F8002008BD003C0240034A11680B
:10056C00034B1B780B441360704700BF280000201E
:10057C0000000020014B1868704700BF28000020C5
:10058C00074AD36823F4E0631B041B0C000200F43D
:10059C00E060184340F0BF6040F40030D06070471A
:1005AC0000ED00E030B4174BDB68C3F30223C3F15A
:1005BC000704042C28BF04241D1D062D18D9033B49
:1005CC004FF0FF3505FA04F421EA0401994005FACD
:1005DC0003F322EA0303194300280BDB0901C9B218
:1005EC0000F1604000F5614080F8001330BC7047AA
:1005FC000023E5E700F00F000901C9B2024B1954C2
:10060C00F4E700BF00ED00E014ED00E0002807DB8C
:10061C0000F01F02400901239340024A42F82030A7
:10062C00704700BF00E100E00138B0F1807F0AD2D2
:10063C00064B5860064AF02182F82310002098607F
:10064C0007221A6070470120704700BF10E000E0DD
:10065C0000ED00E0042805D0054A136823F00403DC
:10066C0013607047024A136843F004031360704729
:10067C0010E000E0704708B5FFF7FCFF08BD000074
:10068C0000230F2B00F2E380F0B583B039E0092290
:10069C0000E00022AA403A4302346D4D45F8242074
:1006AC006C4A1468F24302EA04054F6817F4803F61
:1006BC0001D046EA0405674C2560646802EA04052B
:1006CC004F6817F4003F01D046EA0405614C6560A1
:1006DC00A46802EA04054F6817F4801F01D046EAAB
:1006EC0004055C4CA560E46822404D6815F4001FBD
:1006FC0001D046EA0402574CE26001330F2B00F2A2
:10070C00A48001229A400C6804EA0206B242F4D199
:10071C004C68651E012D03D9112C01D0122C12D15D
:10072C0085685F000324BC4025EA0405CC68BC4006
:10073C002C438460456825EA02054C68C4F300121A
:10074C009A402A434260C4685F000322BA40D243F5
:10075C0014408D68BD402543C5604C68022C01D007
:10076C00122C13D1DD08083550F825E003F00704EE
:10077C004FEA840C0F2404FA0CF42EEA040E0C69D4
:10078C0004FA0CF444EA0E0440F8254004682240B4
:10079C004C6804F00304BC40224302604A6812F027
:1007AC00805FAAD0002201922B4A546C44F48044FE
:1007BC005464526C02F480420192019A9C08A51C6C
:1007CC00234A52F8257003F0030295000F22AA4029
:1007DC0027EA0207214A90423FF45BAF02F58062A0
:1007EC00904222D002F58062904220D002F58062C5
:1007FC0090421ED002F5806290421CD002F58062BD
:10080C0090421AD002F58062904218D002F58062B4
:10081C00904216D002F58062904214D002F58062AC
:10082C0090423FF434AF0A2234E7012232E702222D
:10083C0030E703222EE704222CE705222AE70622C2
:10084C0028E7072226E7082224E703B0F0BD70470B
:10085C0000380140003C01400038024000000240DA
:10086C00002800F0E48170B582B00446036813F0F0
:10087C00010F3BD0A74B9B6803F00C03042B2CD02F
:10088C00A44B9B6803F00C03082B21D06368B3F5D1
:10089C00803F4FD0B3F5A02F52D09E4B1A6822F454
:1008AC0080321A601A6822F480221A606368002B66
:1008BC0050D0FFF75FFE0546964B1B6813F4003FC4
:1008CC0014D1FFF757FE401B6428F5D90320B3E180
:1008DC00904B5B6813F4800FD8D08E4B1B6813F4CD
:1008EC00003F03D06368002B00F0A381236813F052
:1008FC00020F55D0874B9B6813F00C0F3ED0854BE5
:10090C009B6803F00C03082B33D0E368002B68D0F2
:10091C00814B01221A60FFF72DFE05467D4B1B68AB
:10092C0013F0020F54D1FFF725FE401B0228F5D916
:10093C00032081E1774A136843F480331360B5E7F1
:10094C00744B1A6842F480221A601A6842F480329E
:10095C001A60ABE7FFF70EFE05466E4B1B6813F4EF
:10096C00003FC3D0FFF706FE401B6428F5D90320D7
:10097C0062E1684B5B6813F4800FC6D1654B1B6852
:10098C0013F0020F04D0E368012B01D0012053E1D6
:10099C00604A136823F0F803216943EAC10313602A
:1009AC00236813F0080F40D0636963B35B4B0122DB
:1009BC001A60FFF7DFFD0546564B5B6F13F0020F15
:1009CC0033D1FFF7D7FD401B0228F5D9032033E1C3
:1009DC00504A136823F0F803216943EAC1031360FA
:1009EC00DEE74D4B00221A60FFF7C4FD0546494B6C
:1009FC001B6813F0020FD3D0FFF7BCFD401B02287D
:100A0C00F5D9032018E1454B00221A60FFF7B2FD1F
:100A1C000546404B5B6F13F0020F06D0FFF7AAFDA3
:100A2C00401B0228F5D9032006E1236813F0040FBC
:100A3C0079D0384B1B6C13F0805F33D100230193BA
:100A4C00344B1A6C42F080521A641B6C03F08053C6
:100A5C000193019B0125324B1B6813F4807F23D03B
:100A6C00A368012B34D0052B38D02A4B1A6F22F0F7
:100A7C0001021A671A6F22F004021A67A368002B8E
:100A8C0036D0FFF777FD0646224B1B6F13F0020F93
:100A9C0048D1FFF76FFD801B41F288339842F3D9A0
:100AAC000320C9E00025D6E71D4A136843F4807380
:100ABC001360FFF75FFD0646194B1B6813F4807F2C
:100ACC00CED1FFF757FD801B0228F5D90320B3E0E8
:100ADC00104A136F43F001031367CFE70D4B1A6FE6
:100AEC0042F004021A671A6F42F001021A67C5E756
:100AFC00FFF740FD0646074B1B6F13F0020F11D09A
:100B0C00FFF738FD801B41F288339842F3D903205C
:100B1C0092E000BF0038024000004742800E47427E
:100B2C0000700040EDB9A369002B00F08480454AA9
:100B3C00926802F00C02082A51D0022B17D0424BBB
:100B4C0000221A60FFF716FD04463E4B1B6813F09B
:100B5C00007F42D0FFF70EFD001B0228F5D90320C1
:100B6C006AE0384A136C23F080531364DBE7364B8E
:100B7C0000221A60FFF7FEFC0546324B1B6813F08F
:100B8C00007F06D0FFF7F6FC401B0228F5D90320A6
:100B9C0052E0E369226A1343626A43EA8213A26A4F
:100BAC005208013A43EA0243E26A43EA0263254AE5
:100BBC005360254B01221A60FFF7DCFC0446214BE5
:100BCC001B6813F0007F06D1FFF7D4FC001B022832
:100BDC00F5D9032030E000202EE000202CE0012B82
:100BEC002CD0184B9B6803F48001E269914201D030
:100BFC00012021E003F03F02216A8A4201D001204A
:100C0C001AE0616A47F6C0721A408A4201D001208C
:100C1C0012E003F44032A16A8A4201D001200BE0B9
:100C2C0003F07063E26A93420AD0012004E00120D1
:100C3C007047012000E0002002B070BD0120FBE7EE
:100C4C000020F9E70038024060004742324B9B68B5
:100C5C0003F00C03042B5CD0082B01D02F487047F9
:100C6C002DE9F04B2C4B5A6802F03F025B6813F4F1
:100C7C00800F2BD0284B5B68C3F388131E460027CC
:100C8C005C010025E41A65EB0705A90141EA9461B2
:100C9C00A001001B61EB0501CB0043EA5073C400BB
:100CAC00A01943EB07014B0243EAD0534402204600
:100CBC0019460023FFF794FA174B5B68C3F3014303
:100CCC0001335B00B0FBF3F0BDE8F08B124B5B68BB
:100CDC00C3F388131E4600275C010025E41A65EB5C
:100CEC000705A90141EA9461A001001B61EB050114
:100CFC00CB0043EA5073C400A01943EB07018B02ED
:100D0C0043EA90538402204619460023FFF768FA01
:100D1C00D2E70348704700BF003802400024F400BB
:100D2C0000127A00002800F09E8070B50446504BEB
:100D3C001B6803F00F038B4209D2CBB24C4A1370E1
:100D4C00136803F00F038B4201D0012070BD2368A0
:100D5C0013F0020F17D013F0040F04D0454A936818
:100D6C0043F4E0539360236813F0080F04D0414A16
:100D7C00936843F4604393603E4A936823F0F00316
:100D8C00A068034393600D46236813F0010F32D023
:100D9C006368012B21D09A1E012A25D9354A126885
:100DAC0012F0020F61D033498A6822F00302134318
:100DBC008B60FFF7DFFB06462E4B9B6803F00C03A2
:100DCC006268B3EB820F16D0FFF7D4FB801B41F2A5
:100DDC0088339842F0D90320B8E7264A126812F4F7
:100DEC00003FE0D10120B1E7224A126812F0007FE7
:100DFC00D9D10120AAE71E4B1B6803F00F03AB42AD
:100E0C0009D9EAB21A4B1A701B6803F00F03AB42F4
:100E1C0001D001209AE7236813F0040F06D0154A7D
:100E2C00936823F4E053E1680B439360236813F059
:100E3C00080F07D00F4A936823F46043216943EAF3
:100E4C00C1039360FFF702FF0A4B9B68C3F30313C4
:100E5C00094AD35CD840094B1860094B1868FFF756
:100E6C003FFB002072E70120704701206EE700BFB6
:100E7C00003C02400038024008180008080000201E
:100E8C0004000020014B1868704700BF08000020C8
:100E9C0030B4036A23F001030362056A4268846973
:100EAC0024F073040B681C4325F002058B682B435C
:100EBC00104DA84203D005F58065A84205D123F05A
:100ECC000803CD682B4323F004030A4DA84203D03A
:100EDC0005F58065A84205D122F440724D69154391
:100EEC008A692A43426084614A684263036230BC67
:100EFC00704700BF0000014030B4036A23F48073D4
:100F0C000362036A4268C46924F073040D682C43BD
:100F1C0023F400738D6843EA0523124DA84203D0D5
:100F2C0005F58065A84206D123F40063CD6843EA39
:100F3C00052323F480630B4DA84203D005F580658F
:100F4C00A84207D122F440524D6942EA05128D693C
:100F5C0042EA05124260C4614A68C263036230BC53
:100F6C00704700BF0000014030B4036A23F4805383
:100F7C000362036A4468C26922F4E6420D6842EADD
:100F8C00052223F400538D6843EA0533094DA8422A
:100F9C0003D005F58065A84204D124F480444D6942
:100FAC0044EA85144460C2614A680264036230BC3E
:100FBC00704700BF00000140704770477047704792
:100FCC00704710B5044603681A6912F0020F11D06D
:100FDC00DA6812F0020F0DD06FF002021A610123D1
:100FEC00037703689B6913F0030F70D0FFF7E6FFDC
:100FFC000023237723681A6912F0040F12D0DA68E1
:10100C0012F0040F0ED06FF004021A610223237742
:10101C0023689B6913F4407F5FD02046FFF7CEFF17
:10102C000023237723681A6912F0080F12D0DA68AC
:10103C0012F0080F0ED06FF008021A610423237708
:10104C002368DB6913F0030F4ED02046FFF7B6FF81
:10105C000023237723681A6912F0100F12D0DA6874
:10106C0012F0100F0ED06FF010021A6108232377C4
:10107C002368DB6913F4407F3DD02046FFF79EFFC9
:10108C000023237723681A6912F0010F03D0DA6862
:10109C0012F0010F36D123681A6912F0800F03D0B9
:1010AC00DA6812F0800F34D123681A6912F0400FFD
:1010BC0003D0DA6812F0400F32D123681A6912F0AB
:1010CC00200F03D0DA6812F0200F30D110BDFFF7DB
:1010DC0074FF2046FFF773FF8AE72046FFF76DFF8A
:1010EC002046FFF76CFF9BE72046FFF766FF204684
:1010FC00FFF765FFACE72046FFF75FFF2046FFF7E1
:10110C005EFFBDE76FF001021A612046FFF754FF46
:10111C00C1E76FF080021A61204600F066F9C3E760
:10112C006FF040021A612046FFF74AFFC5E76FF0E7
:10113C0020021A61204600F057F9C7E70368304ACD
:10114C00904212D0B0F1804F0FD0A2F57C42904269
:10115C000BD002F58062904207D002F5806290427B
:10116C0003D002F57842904203D123F070034A6811
:10117C001343234A90422AD0B0F1804F27D0A2F5D6
:10118C007C42904223D002F5806290421FD002F53F
:10119C00806290421BD002F57842904217D002F543
:1011AC007052904213D002F5806290420FD002F53B
:1011BC00806290420BD0A2F59832904207D002F593
:1011CC008062904203D002F58062904203D123F4F6
:1011DC004073CA68134323F080034A6913430360C6
:1011EC008B68C3620B688362054B984203D003F58E
:1011FC008063984201D10B690363012343617047FB
:10120C0000000140A8B110B5044690F83D305BB128
:10121C00022384F83D30211D2068FFF78FFF012346
:10122C0084F83D30002010BD80F83C3000F022FAEC
:10123C00EEE701207047000030B4036A23F010037E
:10124C000362036A4468826922F4E6420D6842EA4A
:10125C00052223F020038D6843EA0513114DA842A3
:10126C0003D005F58065A84206D123F08003CD6834
:10127C0043EA051323F040030A4DA84203D005F5B9
:10128C008065A84207D124F440644D6944EA850482
:10129C008D6944EA8504446082614A688263036212
:1012AC0030BC70470000014038B590F83C30012B41
:1012BC0066D00D460446012380F83C30022380F8AA
:1012CC003D300C2A1AD8DFE802F007191919201939
:1012DC0019193419191947000068FFF7D9FD22684C
:1012EC00936943F0080393612268936923F0040324
:1012FC0093612268936929690B439361012384F8F4
:10130C003D30002084F83C0038BD0068FFF794FFA6
:10131C002268936943F4006393612268936923F410
:10132C008063936122689369296943EA012393617D
:10133C00E4E70068FFF7E0FD2268D36943F0080397
:10134C00D3612268D36923F00403D3612268D36983
:10135C0029690B43D361D1E70068FFF705FE2268CA
:10136C00D36943F40063D3612268D36923F48063A7
:10137C00D3612268D369296943EA0123D361BDE7AC
:10138C000220C1E710B401F01F01012303FA01F49C
:10139C00036A23EA04030362036A8A401343036269
:1013AC005DF8044B7047000010B50446012200683C
:1013BC00FFF7E8FF23680B4A934203D002F58062E3
:1013CC00934203D15A6C42F400425A6422689368E7
:1013DC0003F00703062B03D0136843F001031360DB
:1013EC00002010BD000001407047704708B5FFF7A2
:1013FC00B5F8FFF740F908BD08B50248FFF7E1FD65
:10140C0008BD00BF2C000020FEE7000000B589B02D
:10141C0030484FF08043036042F20F73C3600423E3
:10142C004360FFF7EFFE00284AD10022039204929A
:10143C00059206920792602301932648C36803EB3A
:10144C00830303EB83032449A1FB03135B0902937E
:10145C0001A9FFF729FF002834D11E48C36803EB0C
:10146C004303C3EB03131C4AA2FB03235B09029344
:10147C0004220DEB0201FFF717FF28BB1548C368C8
:10148C0003EB8303C3EB0313134AA2FB03235B0994
:10149C000293082201A9FFF707FFB8B90D48C268EB
:1014AC005A2303FB02F30C4AA2FB03235B090293AE
:1014BC000C2201A9FFF7F8FE50B909B05DF804FB46
:1014CC00FFF7A2FFFFF7A0FFFFF79EFFFFF79CFFC0
:1014DC00FFF79AFF2C0000201F85EB5110B592B03E
:1014EC000446202200210AA800F074F90723069371
:1014FC004FF4803307930123089309934FF480032F
:10150C000D9302230C93542C34D0782C3BD0322CDA
:10151C0001D0002407E004230E9332230F930223FF
:10152C0010931193012406A8FFF79AF9002834D1DF
:10153C00022302930F230193002303934FF4805251
:10154C0004920593214601A8FFF7ECFB38BBFFF78B
:10155C0099FC144BA3FB00308009FFF765F80420BD
:10156C00FFF778F8002211464FF0FF30FFF71AF81A
:10157C0012B010BD08230E93A8230F9302241094CD
:10158C0004231193CFE708230E93F0230F93022328
:10159C001093042311930324C5E7FFF735FFFFF7DE
:1015AC0033FF00BFD34D621000B587B0002100910E
:1015BC000A4B1A6B42F001021A631B6B03F0010316
:1015CC000093009B2023019301230293039101A913
:1015DC000348FFF755F807B05DF804FB00380240EC
:1015EC000000024008B5FEF79FFF3220FFF776FFA0
:1015FC00FFF7DAFFFFF70AFF00210E48FFF7D4FED2
:10160C0008B1FFF701FF04210A48FFF7CDFE08B12E
:10161C00FFF7FAFE08210748FFF7C6FE08B1FFF7EF
:10162C00F3FE0C210348FFF7BFFE00B9FEE7FFF7FE
:10163C00EBFE00BF2C00002008B50320FEF7A0FF36
:10164C000B4A536A43F4E0235362002211466FF0B5
:10165C000B00FEF7A7FF002211466FF00A00FEF701
:10166C00A1FF002211466FF00900FEF79BFF08BD99
:10167C0000ED00E030B589B000240094244B1A6CC6
:10168C0042F001021A641A6C02F001020092009AF4
:10169C0001941A6B42F001021A631A6B02F00102F8
:1016AC000192019A02941A6B42F002021A631B6BAC
:1016BC0003F002030293029B20230393022304935F
:1016CC00059406940123079303A91248FEF7D8FF4B
:1016DC0008230393104D03A92846FEF7D1FF4FF4BE
:1016EC008063039303A92846FEF7CAFF4FF40063F7
:1016FC00039303A92846FEF7C3FF1C20FEF786FFC1
:10170C0022460F211C20FEF74DFF09B030BD00BF53
:10171C00003802400000024000040240054BD3F8A0
:10172C00882042F47002C3F888204FF000629A605F
:10173C00704700BF00ED00E0DFF834D0002103E07B
:10174C000C4B5B58435004310B480C4B42189A42DB
:10175C00F6D30B4A02E0002342F8043B094B9A42B1
:10176C00F9D3FFF7DBFF00F011F8FFF73BFF7047F1
:10177C000000032030180008000000200C0000209E
:10178C000C0000206C000020FEE7000070B50D4E30
:10179C000D4CA41BA4100025A54209D10B4E0C4CDA
:1017AC0000F020F8A41BA4100025A54205D170BDA3
:1017BC0056F8253098470135EEE756F8253098470E
:1017CC000135F2E728180008281800082818000826
:1017DC002C18000802440346934200D1704703F8CA
:1017EC00011BF9E7F8B500BFF8BC08BC9E46704772
:0C17FC00F8B500BFF8BC08BC9E46704762
:1018080000000000000000000102030406070809A8
:081818000000000001020304BE
:08182000FCE9FF7F010000005C
:04182800D1010008E2
:04182C00AD01000802
:0C18300001000000100000000024F40083
:040000050800174593
:00000001FF
