:020000040800F2
:1000000088050020C1010008FB170008D51600086C
:10001000F917000857070008351A0008000000000B
:10002000000000000000000000000000FF170008B2
:100030005907000800000000FD170008011800081B
:10004000DB010008DB010008DB010008DB01000820
:10005000DB010008DB010008DB010008DB01000810
:10006000DB010008DB010008DB010008DB01000800
:10007000DB010008DB010008DB010008DB010008F0
:10008000DB010008DB010008DB010008DB010008E0
:10009000DB010008DB010008DB010008DB010008D0
:1000A000DB010008DB010008DB010008DB010008C0
:1000B000DB010008DB010008DB010008DB010008B0
:1000C000DB010008DB010008DB010008DB010008A0
:1000D000DB010008DB010008DB010008DB01000890
:1000E0005D070008DB010008DB010008DB010008F8
:1000F000DB010008DB010008DB010008DB01000870
:10010000DB010008DB010008DB010008DB0100085F
:10011000DB010008DB010008DB010008DB0100084F
:10012000DB010008DB010008DB010008DB0100083F
:10013000DB010008DB010008DB010008DB0100082F
:10014000DB010008DB010008DB010008DB0100081F
:10015000DB010008DB010008DB010008DB0100080F
:10016000DB010008DB010008DB010008DB010008FF
:10017000DB010008DB010008DB01000800000000D3
:10018000DB010008DB010008DB010008DB010008DF
:10019000DB010008DB010008DB010008DB010008CF
:1001A000DB010008DB010008DB010008DFF80CD0F0
:1001B00000F050FA00480047492800088805002050
:1001C0000648804706480047FEE7FEE7FEE7FEE7F1
:1001D000FEE7FEE7FEE7FEE7FEE7FEE78D18000814
:1001E000AD0100082DE9F05F0546002092469B46D0
:1001F00088460646814640241BE02846414647463D
:10020000224600F05EF853465A46C01A914110D378
:1002100011461846224600F045F82D1A67EB0108F2
:100220004F4622460120002100F03CF817EB000960
:100230004E41201EA4F10104DFDC484631462A4627
:100240004346BDE8F09FD2B201E000F8012B491E01
:10025000FBD270470022F6E710B513460A46044663
:100260001946FFF7F0FF204610BD421C10F8011B95
:100270000029FBD1801A704730B50B46014600209B
:100280002022012409E021FA02F59D4205D303FA58
:1002900002F5491B04FA02F52844151EA2F10102D9
:1002A000F1DC30BD202A04DB203A00FA02F1002004
:1002B00070479140C2F1200320FA03F319439040A4
:1002C0007047202A04DB203A21FA02F0002170470F
:1002D00021FA02F3D040C2F12002914008431946AE
:1002E00070472DE9FE4F804681EA0300C00F0C469F
:1002F000009021F0004123F00045B8EB0200A94135
:1003000005D24046214690461C460B46024623F045
:100310000040104347D0270DC7F30A00C3F30A512A
:100320000290401A019040286BDAC3F3130040F4A6
:10033000801B0098924620B10023D2EB030A63EBA6
:100340000B0B01985946C0F140025046FFF7AAFF37
:1003500006460D4650465946019A00F08DF910EBBD
:1003600008006141002487EA115284EAE7731A43C6
:1003700040D0009A62B3019A012A4FEA075215DC75
:10038000001B61EB02014FF0004202EA0752CDE987
:100390000042001C41F5801132462B4600F08DF9D9
:1003A00003B0BDE8F08F40462146F9E7001B61EB42
:1003B0000201001C41F5801300185B412018A2F5D2
:1003C000001747EB030140EAD570B6196D4111E003
:1003D0006D084FEA360645EAC0754FEA0752001B22
:1003E00061EB0201001C41F5801149084FEA300021
:1003F0000019514132462B4603B0BDE8F04F00F0E2
:100400004DB90098012240000023D0EB020263EBBB
:10041000E073009821464FEAE074B8EB000061EB0E
:100420000401E9E783F000435BE781F0004158E70E
:100430002DE9FE4F81EA030404F0004421F000415D
:1004400000944FF0000B23F0004350EA01045ED00B
:1004500052EA03045BD0C3F30A54C1F30A552C4497
:10046000A4F2F3340194A0FB0254C1F3130141F44C
:100470008011C3F3130343F4801301FB024400FB18
:10048000034E840A970A44EA815447EA8357A4FB3F
:10049000076802958D0A05FB07854FEA932C04FB3C
:1004A0000C542705029D4FEA065847EA1637B5EB6C
:1004B00008056EEB070C870E920E47EA811742EA99
:1004C0008312A7FB0201B6EB0B0164EB00042B0DBA
:1004D00043EA0C335E1844EB1C50DA465146E7FB06
:1004E0000201C5F313044FEA0B3343EA14534FEAF6
:1004F0000432019C43EA0603A4F10C040294009C1C
:10050000CDE900B400F0D9F803B0BDE8F08F0020C9
:100510000146F9E72DE9F04D81EA030404F0004BB0
:1005200021F0004514464FF0000A23F0004150EA44
:10053000050220D054EA01021DD0C5F30A57024635
:10054000C5F31303C1F31300C1F30A5640F4801539
:1005500043F48013A7EB0608101BD64608F2FD38BB
:1005600073EB050002D308F1010801E092185B412A
:10057000B8F1000F03DA00200146BDE8F08D00203D
:100580004FF48011064684460EE0171B73EB0507F7
:1005900005D3121B63EB050306434CEA010C490823
:1005A0004FEA300092185B4150EA0107EDD152EA60
:1005B000030012D082EA040083EA0501084305D053
:1005C000101BAB4106D20122002306E000224FF0AF
:1005D000004302E06FF0010253101AEB06004CEBEF
:1005E000085110EB0A0041EB0B01BDE8F04D00F0A3
:1005F00055B8C1F30A52C1F3130140F2FF3341F47D
:1006000080119A4202DA00200146704740F23343DB
:100610009A42A2F2334202DC5242FFF752BEFFF787
:1006200041BE000030B5041E71F1000404DB4FF040
:100630000044404264EB0101141E73F1000405DB29
:100640001C464FF00043524263EB0403994208BF3B
:10065000904230BD064C074D06E0E06840F00103D3
:1006600094E8070098471034AC42F6D3FFF7A2FD98
:100670002C2900084C290008202A06DBCB17203A39
:1006800041FA02F043EAE07306E041FA02F3D04097
:10069000C2F12002914008431946704710B5141E5C
:1006A00073F1000408DA401C41F1000192185B412B
:1006B0001A4301D120F0010010BD2DE9F04D924602
:1006C0009B4611B1B1FA81F202E0B0FA80F2203219
:1006D0009046FFF7E7FD04460F4640EA0A0041EA6C
:1006E0000B0153465A46084313D0114653EA010002
:1006F00019D0C8F140025046FFF7E3FD05460E460B
:10070000504659464246FFF7CDFD084305D001202B
:1007100004E020463946BDE8F08D0020054346EA56
:10072000E0762C4337430A986305E40AA0EB0800FF
:100730000022FD0A44EA47540A3002D5002001464F
:10074000E9E7010510196941DDE90845001969412A
:10075000BDE8F04DA2E7FEE7704700000249012026
:100760000870400300F04ABA00000020002229B1BE
:1007700001291DD002291ED04FF440720B2800D948
:10078000001D0E490B6823F440730B600B68134384
:100790000B600A6822F0F8020A600A68022303EB81
:1007A000C00002430A60086840F480300860704767
:1007B0004FF48072E2E74FF40072DFE7103C024032
:1007C0001348016889050FD5016821F400710160A3
:1007D000016841F400610160016821F40061016079
:1007E000016841F400710160016849050FD5016895
:1007F00021F480610160016841F480510160016869
:1008000021F480510160016841F48061016070470A
:10081000003C02400E4A136823F44073136003291E
:100820000DD0012911680FD041F400411160116809
:100830004FF4803343EA0020014311607047116890
:1008400048F204031943F1E741F00401EEE7000028
:10085000103C0240064A136823F440731360136887
:100860001360136843F001031360017070470000C8
:10087000103C0240094910B50C6824F440740C6027
:100880000C6844F440740C600C6844F001040C6083
:100890000260BFF36F8F436010BD0000103C024048
:1008A000074A136823F440731360136843F480739A
:1008B0001360136843F00103136001807047000068
:1008C000103C0240074A136823F440731360136816
:1008D00043F400731360136843F001031360016075
:1008E00070470000103C02401C490868C2061C48C2
:1008F00005D5C26942F01002C26110220A600A687E
:10090000920605D5C26942F00802C26120220A603F
:100910000A68520605D5C26942F00402C26140224B
:100920000A600A68120605D5C26942F00202C26175
:1009300080220A600A68D20506D5C26942F0010227
:10094000C2614FF480720A600A68920705D5C269D5
:1009500042F02002C2610220086070470C3C024055
:100960006401002070B5114904460020C86100F000
:1009700041FA06460E4D09E0601C07D024B100F094
:1009800039FA801BA04201D9032070BD2868C0033A
:10099000F2D42868C00701D001202860286810F42C
:1009A000F970F2D0FFF7A0FF012070BD64010020B4
:1009B0000C3C024030B502234371002305E000BF28
:1009C000056851F823402C605B1C9342F8D3016802
:1009D000096801224271084630BD10B5040002D0FA
:1009E000607910B106E0012010BD00202071204682
:1009F00000F004F801206071002010BD08B5006807
:100A00000649884208D10648016841F480510160D6
:100A1000006800F48050009008BD000000300240E3
:100A2000303802402DE9F047044623480F46017E46
:100A300001290AD00121804601764CF250394846FE
:100A4000FFF790FF020003D030E00220BDE8F087FE
:100A50004FF0FF3038602068184D012801D0A6689B
:100A60001DE0207C6168FFF7D5FE4846FFF77AFF5E
:100A70000246286848F204018843286014E0217C7B
:100A80003046FFF773FE4846FFF76CFF0200286808
:100A900020F0FA00286001D03E6005E0761CD4E921
:100AA00002100844B042EAD8FFF78AFE002188F815
:100AB00018101046CAE7000064010020103C0240F4
:100AC0000F2101600D49098881600C4AAA21521E3C
:100AD0001378CC2B0FD01278AA2A00D055210161AF
:100AE0000649891E0A6802F0E0020276097801F0E0
:100AF0000C0141617047CC21F1E70000163C024037
:100B00000348016841F00041016000207047000087
:100B1000103C02400348016841F0010101600020DF
:100B200070470000143C024006480068C00707D028
:100B3000044805490C3801600449016000207047F1
:100B400001207047143C02403B2A19087F6E5D4C1F
:100B50002DE9F0471B4E05461446307E1F46894658
:100B6000012808D0012030764CF250384046FFF77B
:100B7000F9FE18B114E00220BDE8F0879DB1012D07
:100B800016D0022D19D022463B464846FFF772FE8A
:100B90004046FFF7E7FE0C490A6822F001020A60AE
:100BA00000213176E8E7E1B24846FFF753FEEFE770
:100BB000A1B24846FFF774FEEAE721464846FFF730
:100BC00081FEE5E764010020103C02400749002057
:100BD0000A68002A09DA054A054B0C3A1360054BEE
:100BE00013600968002900DA01207047103C0240B8
:100BF00023016745AB89EFCD70470000044910B56C
:100C00000A68024202D00860FFF7F6FF10BD00003C
:100C1000143C01402DE9F84F00224FF00108032554
:100C20004FF00F0E0B6808FA02F42340A3426ED176
:100C30004E68012E05D0022E03D0112E01D0122EA7
:100C400012D186684FEA420C05FA0CF7BE43CF6812
:100C500007FA0CF7374387604668A6430C79C4F35C
:100C60000014944034434460C668570005FA07FCFA
:100C70008C6826EA0C06BC403443C4604C68022CE5
:100C800001D0122C13D1D40800EB8404A346D4F86D
:100C9000209054074FEAD46A0EFA0AF629EA0609A8
:100CA0000E6906FA0AF646EA0906CBF820600468DF
:100CB0000E7924EA0C0406F00306BE4026430660C3
:100CC0004C68E4006FD53B4C266846F480462660AD
:100CD000246822F0030604F480440094364C344423
:100CE000A446D4F808489607360F0EFA06F7BC4318
:100CF000324FB84201D100272EE0314FB84201D126
:100D0000012729E02F4FB84202D1022724E04AE010
:100D10002D4FB84201D103271EE02C4FB84201D11C
:100D2000042719E02A4FB84201D1052714E0294FC2
:100D3000B84201D106270FE0274FB84201D107275B
:100D40000AE0264FB84201D1082705E0244FB842F7
:100D500001D1092700E00A27B7402743CCF80878DB
:100D6000204E34684F689C43FF0300D51C43346019
:100D70001C4E361D34684F689C43BF0300D51C438E
:100D80003460184E083634684F689C43FF0200D523
:100D90001C433460134E0C3634684F689C43BF02CA
:100DA00000D51C433460521C102AFFF43BAFBDE851
:100DB000F88F00004438024000300140000002403B
:100DC0000004024000080240000C024000100240F3
:100DD0000014024000180240001C024000200240A3
:100DE00000240240003C01400AB1816170470904BF
:100DF000FBE70000014880687047000014000020F5
:100E00000248816802781144816070471400002014
:100E10000B4810B5016841F400710160016841F4AC
:100E200080610160016841F480710160032000F07D
:100E30006FF8002000F006F800F024F8002010BD44
:100E4000003C024070B50D4D04464FF47A7128788D
:100E5000B1FBF0F00A490968B1FBF0F000F002FBC9
:100E600048B9102C07D200222146501E00F030F85D
:100E700000206C6070BD012070BD000014000020D7
:100E8000200000200A4808B5016841F48041016053
:100E9000006800F4804000900548001F016841F0A0
:100EA00080510160006800F08050009008BD000093
:100EB00044380240002809DB00F01F020121914064
:100EC0004009800000F1E020C0F8001170470000E8
:100ED000F0B40E4B1B680C46C3F30223C3F10705A5
:100EE000042D00D90425191D072901D2002300E093
:100EF000DB1E012606FA05F1491E214099409E405D
:100F0000761E16403143F0BC00F0A8BD0CED00E0A9
:100F1000064900F0070208684FF6FF03184040EA50
:100F20000220034A10430860704700000CED00E007
:100F30000000FA052DE9F0470E46050065D0DFF800
:100F40001481D8F80000F7B200F00F00B04207D2C9
:100F500088F80070D8F8000000F00F00B04254D1BB
:100F600028683D4C810712D5400703D5206840F41E
:100F7000E05020602878000703D5206840F46040E6
:100F800020602068A96820F0F000084320602878DD
:100F9000C0072DD0304968680839012812D00228CE
:100FA00013D0032811D00968890700292DDA216898
:100FB00021F0030101432160FFF71CFF814641F24C
:100FC000883A0EE009688903EFE709688901ECE7D0
:100FD000FFF710FFA0EB0901514502D90320BDE83E
:100FE000F0872068696800F00C00B0EB810FEFD14A
:100FF000D8F80010404601F00F01B14207D9077040
:10100000006800F00F00B04201D00120E7E7287827
:10101000400705D52068E96820F4E05008432060C7
:101020002878000706D52068296920F4604040EA46
:10103000C100206000F038F82168084AC1F30311AC
:10104000515CC8400649086006480068FFF7FAFE90
:101050000020C4E7003C0240083802401429000880
:101060002000002018000020044805490068096895
:10107000044AC1F38221515CC8407047200000201F
:101080000838024024290008044805490068096816
:10109000044AC1F34231515CC8407047200000202F
:1010A0000838024024290008154810B5006810F0DF
:1010B0000C02144813D04110042A0FD0082A0ED174
:1010C0000F4C241F2268236802F03F025B0207D501
:1010D0002068C0F38810A0FB010106E0084610BD9F
:1010E0002168C1F38811A1FB00010023FFF77AF802
:1010F0002168C1F30141491C4900B0FBF1F010BD6A
:10110000083802400024F4002DE9F84F040076D09E
:101110002078DFF838A3CE4DC00749D0DAF80010A8
:101120005046C1F38101012908D00068C0F3810055
:1011300002280AD1281D0068400206D528688003CD
:1011400036D560680028E2D032E06068B0F5803FB4
:1011500010D0B0F5A02F286810D020F4803028607F
:10116000286820F4802028606068A0B1FFF742FE64
:1011700006460CE0286840F48030F4E740F4802014
:101180002860F7E7FFF736FE801B642873D82868CD
:101190008003F7D50CE0FFF72DFE064605E000BF03
:1011A000FFF728FE801B6428F0D828688003F7D456
:1011B0002078DFF8A08280074FF000093ED5DAF8EA
:1011C0000010504611F00C0F09D00068C0F38100E8
:1011D00002280BD19D48001F0068400206D42868F1
:1011E000800715D5E068012809D111E0E068B8B1A1
:1011F0000120C8F80000FFF7FDFD064605E020E1EC
:10120000FFF7F8FD801B0228C0D828688007F7D5B3
:101210002868216920F0F80040EAC10028600DE04C
:10122000C8F80090FFF7E6FD064604E0FFF7E2FD90
:10123000801B02281FD828688007F7D42078000771
:1012400022D5824E844861696C3671B101210160FA
:10125000FFF7D0FD074604E0FFF7CCFDC01B0228D6
:1012600009D830688007F7D50EE0C0F80090FFF786
:10127000C1FD074605E082E0FFF7BCFDC01B022868
:101280007DD830688007F7D42078400768D5DFF82C
:10129000BCB100270BF1380BDBF80000C0000BD409
:1012A000DBF8001041F08051CBF80010DBF80000B3
:1012B000012700F080500090684E3068C00510D4BF
:1012C000306840F480703060FFF794FD009005E0D6
:1012D000FFF790FD0099401A022850D83068C005E9
:1012E000F6D55A4EA068683601280FD00528306818
:1012F00010D020F001003060306820F00400306031
:10130000A068B8B1FFF776FD00900FE0306840F0BC
:101310000100F4E740F004003060F7E7FFF76AFDF2
:101320000099411A41F28830814266D830688007BE
:10133000F4D50EE0FFF75EFD009007E0FFF75AFDE1
:101340000099411A41F28830814256D830688007AE
:10135000F4D42FB1DBF8001021F08051CBF800104D
:10136000A069D0B3DAF800205146C2F38102022A04
:101370004AD00228484607D0C8F8600000E03CE0A8
:10138000FFF738FD04463BE04746C8F86000FFF72A
:1013900031FD064605E000BFFFF72CFD801B02284B
:1013A0002BD828688001F7D4D4E907010843A16A43
:1013B0002B4A490802EB0141626A41EA8211084363
:1013C00094F82C1040EA01612048001F01600120C0
:1013D0003866FFF70FFD044605E034E0FFF70AFD2D
:1013E000001B022809D828688001F7D52BE000BF30
:1013F000FFF700FD001B022802D90320BDE8F88F8B
:1014000028688001F4D41EE00128F7D00868E2695A
:1014100000F48001914214D1226A00F03F01914210
:101420000FD147F6C071626A0140914209D1A26AA8
:1014300000F44031914204D1E16A00F070608842CA
:1014400001D00120DAE70020D8E700000838024088
:101450000038024000004742800E474200700040C2
:101460000000FFFF10B5401EB0F1807F01D30120C6
:1014700010BD4FF0E02460610F21601700F0EEFA1C
:101480000020A06107202061002010BD70B504007D
:1014900004D094F83900002510B106E0012070BD99
:1014A00084F83850204600F023F8242084F83900CE
:1014B0002068C16821F40051C160204600F0F4F9B1
:1014C0002068016921F4904101612068416921F09F
:1014D0002A0141612068C16841F40051C160E5639F
:1014E000202084F8390084F83A00002070BD000004
:1014F00010B586B0044614216846FEF7ABFE1449C9
:101500002068884221D11348016841F4802101609C
:10151000006800F4802005900E481038016841F002
:10152000080101600068694600F0080005904FF46A
:10153000407000900220019001200290032003904F
:10154000072004900448FFF765FB06B010BD0000BB
:101550000048004040380240000C02402DE9F843AA
:10156000044690F83A00994616460D46202852D176
:10157000BDB1B6B194F8380001284CD0012084F8F0
:1015800038000027E763222084F83A002C34FFF764
:1015900031FC24F8026B804624F80A6B04F8387991
:1015A00031E00120BDE8F883E08D401EE085A068B1
:1015B0004346B0F5805F4FF000024FF02001204617
:1015C000CDF8009004D000F003FA98B10320E9E7C9
:1015D00000F0FEF90028F9D1206900282068406851
:1015E00003D0C1B225F8011B0DE0C0F3080125F8B6
:1015F000021B08E0206900282068406801D000F044
:101600007F0005F8010BE08D0028CDD1202084F863
:101610003A000020C6E70220C4E72DE9F84304465B
:1016200090F839001F4616460D46202850D1B5B116
:10163000AEB194F8380001284AD0012084F838006F
:101640004FF00008C4F83C80212084F83900FFF7EF
:10165000D1FBA6848146E68484F8388026E0012008
:10166000BDE8F883E08C401EE084A0684B46B0F5EE
:10167000805F4FF000024FF080012046009703D0BA
:1016800000F0A6F9E8B90DE000F0A2F9C8B9288881
:101690002168C0F308004860206908B16D1C05E0AE
:1016A000AD1C03E0216815F8010B4860E08C0028B0
:1016B000D8D14B46002240212046009700F088F9FF
:1016C00008B10320CCE7202084F839000020C7E7C8
:1016D0000220C5E7FEE700002DE9F04387B01421A2
:1016E0006846FEF7B7FD3F480024016841F0040159
:1016F0000160016801F004010591016841F0800179
:101700000160016801F080010591016841F001016B
:101710000160016801F001010591016841F00201D9
:101720000160016801F002010591016841F00801C2
:101730000160016801F008010591016841F0400174
:1017400001600068284F00F040004FF4814505908B
:10175000002229463846FFF747FBDFF89080002239
:1017600040214046FFF740FBDFF884907E150022C1
:1017700031464846FFF738FB300100901D48CDE95F
:10178000010469464846FFF745FA00950125CDE971
:101790000154694638460394FFF73CFA4020009014
:1017A000CDE90154694640460394FFF733FA80209F
:1017B000CDE90004694640460294FFF72BFA0096F3
:1017C000CDE90154694648460394FFF723FA002205
:1017D00011462820FFF77CFB2820FFF76BFB07B0A2
:1017E000BDE8F08330380240000402400018024097
:1017F0000008024000001110FEE770477047704774
:10180000FFF7FEBA30B593B030216846FEF722FDEF
:1018100014210CA8FEF71EFD1A480025016841F0AE
:1018200080510160006800F08050119016480168F6
:1018300041F4404101600068022400F440401190EE
:10184000012000904FF4A02001906005CDE90640F2
:1018500004200890A820CDE9090407200B906846D1
:10186000FFF752FC0CA90F2081E831004FF4A05083
:101870000F90E002109005210CA8FFF75BFB13B05E
:1018800030BD00004038024000700040054801684B
:1018900041F47001016003494FF000608039086035
:1018A0007047000088ED00E02DE9F0410446006833
:1018B0000169E26821F44051114301612169A06886
:1018C000E26908436169114308432168CA6849F223
:1018D0000C639A430243CA6020684169A26921F4FB
:1018E000407111434161E069192764253226B0F542
:1018F000004F354A354920684FF0000806D088422D
:1019000001D0904236D1FFF7BFFB35E0884201D0CD
:10191000904202D1FFF7B8FB01E0FFF7A5FB616839
:101920004A18A0FB070148EB0803FEF75BFC0146E1
:10193000B0FBF5F00201B1FBF5F06FF0180358436E
:1019400001EB800006EBC000B0FBF5F000F0F80002
:1019500002EB4002B1FBF5F0584301EB800006EBCF
:10196000C000B0FBF5F000F007002168104488606B
:10197000BDE8F081FFF778FB61688B0F8A00A0FB60
:101980000701FEF72FFC0146B0FBF5F06FF01802DF
:10199000504301EB800006EB0010B0FBF5F000F0C7
:1019A000F002B1FBF5F002EB0012B1FBF5F06FF0C5
:1019B0001803584301EB800006EB0010B0FBF5F074
:1019C00000F00F00D1E700000014014000100140BA
:1019D0002DE9F041984617460E460446069D1DE047
:1019E000681C1BD02DB1FFF705FAA0EB0800A84238
:1019F00014D92068C16821F4D071C16020684169A0
:101A000021F001014161202084F8390084F83A0076
:101A1000002084F838000320BDE8F08120680068C9
:101A200036EA000004D00020B842D9D00020F3E705
:101A30000120F9E7FEE7000037B514460846064BDB
:101A40006A46214600F0ECF804466946002000F0A2
:101A50007EFC20463EBD00004F2300080907090E0A
:101A6000002804DB00F1E02080F80014704700F04B
:101A70000F0000F1E02080F8141D704702E008C854
:101A8000121F08C1002AFAD170477047002001E0F8
:101A900001C1121F002AFBD1704700002DE9FF5F32
:101AA00082B00021DDE90430020DDDF840B00343CF
:101AB00018D044F61050A2F2FF3242431514119888
:101AC00001281FD0A5EB0B00401C5FEA000A4FF075
:101AD00000064E4FDFF83891B046504615D5CAF192
:101AE000000413E0119801244AA3012801D16FEAF0
:101AF0000B010298119AC0E90031C0E9024206B018
:101B0000BDE8F09FCBF10000DFE704460021404A2A
:101B1000491842EB0450CDE9001012E0E00707D06D
:101B200032463B4640464946FEF782FC804689469F
:101B300032463B4610461946FEF77AFC06460F46EB
:101B40006410002CEAD1DDE90401DDE90023BAF1DB
:101B5000000F06DAFEF76CFC42464B46FEF768FCC7
:101B600005E0FEF7D7FC42464B46FEF7D3FC0446A1
:101B70000E460022284BFEF755FD03D84FF0FF30EC
:101B8000014607E00022254B20463146FEF7A9FB1F
:101B9000FEF72FFD102409E0002C0ADB0A220023A7
:101BA000FEF720FB039B30321A55641E50EA0102F7
:101BB000F2D1641C039AC4F111031444119A012A4E
:101BC00003D0012208430DD10AE0084304D00020CD
:101BD0004FF0110B119072E7A3EB0B056D1E0DE09A
:101BE0005B4504DD4FF0000205F1010504E003DA76
:101BF0004FF00002A5F10105002AECD002981199DE
:101C0000C0E90231C0E9004579E700000000144056
:101C10000000F03F300000000000F0430000E03F13
:101C20002DE9FF4F95B09B468946064600250FE2F9
:101C3000252877D100242746F84A0121059400E0A1
:101C4000044316F8013F203B01FA03F01042F7D19C
:101C500030782A2811D06FF02F033078A0F13002AD
:101C6000092A16D8059A44F0020402EB820203EB1B
:101C700042021044761C0590EFE759F8042B0592B8
:101C8000002A03DA504244F40054059044F0020460
:101C9000761C30782E2816D116F8010F44F0040473
:101CA0002A280DD06FF02F023078A0F13003092BD5
:101CB00009D807EB870302EB4303C718761CF3E749
:101CC00059F8047B761C30786C280FD006DC4C2841
:101CD00017D068280DD06A2814D104E0742810D0D9
:101CE0007A280FD10DE044F400140AE044F4801483
:101CF00001E044F440147278824202D104F5801469
:101D0000761C761C307866280BD013DC582877D0E8
:101D100009DC002875D04528F6D04628F4D047289D
:101D20001AD19DE118E0632835D0642879D0652860
:101D300012D195E1702873D008DC6728F1D06928AA
:101D40006FD06E280DD06F2806D1B5E073282CD047
:101D5000752875D0782874D05A46179990476D1C0D
:101D600075E1C4F30250022809D003280DD0D9F838
:101D7000001004280DD00D6009F1040967E1D9F8BD
:101D80000010EA17C1E90052F6E7D9F800100D80FB
:101D9000F2E70D70F0E719F8041B8DF80010002031
:101DA0008DF80100EA46012003E059F804AB4FF03A
:101DB000FF3061074FF0000102D40DE008F101018E
:101DC0008846B9420FDA8045F8DB1AF80810002976
:101DD000F4D108E008F1010188468142FADB1AF8E3
:101DE00008100029F6D105985B46A0EB08072146AC
:101DF0003846179A00F094FA284400EB080507E0EB
:101E00004DE029E10DE01AF8010B5A461799904769
:101E1000B8F10108F7D25B4621463846179A13E11C
:101E200042E00A220092C4F302524FF0000A022A52
:101E300008D059F804CB032A4FEAEC710AD00DE020
:101E400029E02AE009F1070121F00702F2E802C1C6
:101E5000914609E00FFA8CFC4FEAEC71042A03D199
:101E60004FFA8CFC4FEAEC71002907DA0A46002190
:101E7000DCF1000C61EB02012D2202E0220504D509
:101E80002B228DF80420012203E0E20701D020225A
:101E9000F7E7904659E00A2102E010220DE01021F8
:101EA0004FF0000A00910BE010224FF0000A44F0BE
:101EB00004040827009203E008224FF0000A009271
:101EC000C4F30252022A05D059F804CB0021032A98
:101ED00008D009E009F1070121F00702F2E802C188
:101EE000914605E01FFA8CFC042A01D10CF0FF0C8E
:101EF0004FF00008220728D5702806D0009B83F0F9
:101F0000100353EA0A0305D00EE040228DF80420A6
:101F1000012208E05CEA010206D030228DF804209C
:101F20008DF8050002229046009B83F0080353EAD7
:101F30000A030AD15CEA010201D1620705D5302209
:101F40008DF804204FF001087F1E582804D034A0DB
:101F500003900EA802900DE036A0F9E753466046C4
:101F6000009AFEF73FF984460398825C0298401E6F
:101F7000029002705CEA0100F0D1029806A9081AEA
:101F800000F1200A600702D524F4803400E0012724
:101F9000574502DDA7EB0A0000E0002000EB0A0134
:101FA000009005984144401A0590E00306D45B4632
:101FB0002146179A059800F0B3F90544002706E07A
:101FC00001A85A46C05D179990476D1C7F1C474574
:101FD000F6DBE0030CD55B462146179A059800F026
:101FE0009FF9054404E030205A46179990476D1C2C
:101FF0000099481E00900029F5DC08E0029802993B
:102000005A460078491C0291179990476D1CBAF105
:102010000001AAF1010AF1DC65E1000009280100D4
:10202000303132333435363738396162636465664E
:102030000000000030313233343536373839414210
:10204000434445460000000000F058F90544761C62
:10205000307800287FF4ECAD19B02846BDE8F08F49
:10206000620700D4062709F1070222F0070CFCE8FA
:102070000223E14603F000485FEA080C02D00FF2A9
:10208000702C0DE05FEA045C02D50FF2682C07E0CB
:102090005FEAC47C02D00FF2602C01E0AFF2700C5A
:1020A0004FF0FF3823F00043CDF850C065280CD026
:1020B00006DC452809D046281DD047283DD13DE003
:1020C000662818D067287ED138E00021112F01DB67
:1020D000112000E0781CCDE9000106A90EA8FFF749
:1020E000DDFCDDE90F010E9A03910021009207F15A
:1020F000010A04914DE04FF000400097CDE9011036
:1021000006A90EA8FFF7CAFCDDE90F0203920E9B99
:1021100011990022DDF80CA00093049211B9791CEA
:1021200000EB010AB7EB0A0004D4C0F1FF3007F15D
:10213000010A0490AAEB0700019044E0012F00DAA5
:1021400001270021112F01DD112000E03846CDE9E3
:10215000000106A90EA8FFF7A1FCDDE90F010E9A08
:102160000391002104910092BA4621070CD40399EF
:10217000514500DA8A46BAF1010F05DD009AAAF14D
:102180000101515C302908D0B84202DA10F1040F85
:1021900006DA0121CDE9011015E0AAF10101E9E714
:1021A000002805DC049901440491AAEB000102E037
:1021B000411C514500DD8A460499401A401C01909B
:1021C0004FF000400290200704D40198504501DBF5
:1021D000CDF8048000208DF84F0002980DF14F07D4
:1021E000B0F1004F25D02B200E9002984FF002083E
:1021F00000280CDA404202902D200E9007E00A21C0
:102200000298FEF739F83031029007F8011DB8F155
:102210000001A8F10108F2DC02980028EFD1791E34
:102220000E980870307800F0200040F0450007F864
:10223000020D12A8C01B00F107081498007800B125
:10224000012000EB0A01019801EBE071059841447F
:10225000401A401E0590E00306D45B462146179ABB
:10226000059800F05DF805441498007818B15A46B6
:10227000179990476D1CE00324D55B462146179AB9
:10228000059800F04DF805441CE00498002807DB91
:10229000DDE90301884203DD0098405C179901E005
:1022A000179930205A469047049805F10105401CC3
:1022B00004900198401E019004D12E205A4617998F
:1022C00090476D1CBAF10001AAF1010ADDDC05E0BE
:1022D00017F8010B5A46179990476D1CB8F1000189
:1022E000A8F10108F4DC5B462146179A0598ABE695
:1022F0002D0000002B000000200000002DE9F0411F
:10230000044600251E461746880404D405E03946D5
:102310002020B0476D1C641EF9D52846BDE8F08129
:102320002DE9F041044600251E469046C80301D51C
:10233000302700E02027880404D505E041463846D0
:10234000B0476D1C641EF9D52846BDE8F0810A68C7
:10235000531C0B601070704738B504460078401C61
:102360002118001F51F8042CC1B2204600F0D2F908
:1023700010B100F057F938BD2078012100F042F982
:10238000A078E178012200F0E5F98DF80000012144
:10239000684600F0B5F938BD38B504460078401CF1
:1023A0002118001F51F8042CC1B2204600F0B2F9E8
:1023B00010B100F037F938BD2078012100F022F982
:1023C000A078E178002200F0C5F98DF80000012125
:1023D000684600F095F938BD38B504460078401CD1
:1023E0002118001F51F8042CC1B2204600F092F9C8
:1023F00010B100F017F938BD2078012100F002F982
:102400000A4D012280212846FEF7EEFCE178A078F3
:1024100000F0DAF98DF80000002280212846FEF74E
:10242000E3FC0121684600F06BF938BD000402406E
:1024300038B50F4800680F4CC0F30B00ADF8000032
:102440002078401C2118001F51F8042CC1B22046EE
:1024500000F060F910B100F0E5F838BD20780221F5
:1024600000F0D0F80221684600F04AF938BD0000BB
:10247000002004E06400002010B50D4C2078401CC2
:102480002118001F51F8042CC1B2204600F042F977
:1024900018B1BDE8104000F0C5B82078082100F060
:1024A000B1F8BDE810400821024800F029B9000049
:1024B000640000200100002038B504460D48006883
:1024C000000A8DF800002178491C6018091F50F897
:1024D000042CC9B2204600F01DF910B100F0A2F89A
:1024E00038BD2078012100F08DF80121684600F008
:1024F00007F938BD00C0FF1F38B501780446491CF4
:102500000844091F50F8042CC9B2204600F002F913
:1025100010B100F087F838BD2078012100F072F882
:1025200010208DF800000121684600F0E9F838BD60
:102530001CB50446007800218DF8001001218DF8AB
:102540000410401C2118001F51F8042CC1B2204671
:1025500000F0E0F810B100F065F81CBD2078012112
:1025600000F050F8D4F80240204600F0AFF94FF0E8
:10257000010118B101A800F0C3F81CBD684600F0C5
:10258000BFF8641CA0471CBD38B504460078401C49
:102590002118001F51F8042CC1B2204600F0BAF8EF
:1025A00010B100F03FF838BD2078012100F02AF882
:1025B000D4F80220A179E01D00F020F98DF8000088
:1025C0000121684600F09CF838BD38B50178044612
:1025D000491C0844091F50F8042CC9B2204600F0D9
:1025E00099F810B100F01EF838BD2078012100F0F4
:1025F00009F800F01BF9ADF800000221684600F070
:102600007FF838BD08B5A5208DF800008DF80110C1
:102610004FF0FF33022269460148FEF7FEFF08BD76
:102620002400002008B57F208DF800004FF0FF3314
:10263000012269460148FEF7F0FF08BD2400002092
:10264000274C4FF480764FF0FF3531462448FDF794
:1026500001FE23492B460122A1F14000FEF77EFF37
:102660001F4822782B46611C4038FEF777FF6078C0
:1026700051380C2830D2DFE800F0070B0F13171B7E
:102680001F230627062BE0E71548FFF735FFDCE799
:102690001348FFF7F1FED8E71148FFF7C9FED4E76A
:1026A0000F48FFF709FFD0E70D48FFF741FFCCE7E0
:1026B0000B48FFF791FEC8E70948FFF765FFC4E73D
:1026C0000748FFF769FEC0E70548FFF77EFFBCE754
:1026D0000348FFF741FEB8E702A000F0DFF8B4E7D7
:1026E00064000020496E76616C6964206F707469C3
:1026F0006F6E732066726F6D20686F73740D0A00C1
:102700008AB201464FF0FF330148FEF786BF000052
:1027100024000020F8B50746FF2016460D46002489
:1027200007E0385D0090012269460948FEF742F94A
:10273000641CAC42F5D3064909688A6842F001027C
:102740008A60B04201D10020F8BD0120F8BD000030
:102750000C0000202DE9F04116460F4605464FF0CB
:102760000008174CFEF7E0F9154808380168C9035E
:10277000FCD43EB1216821F0004121602168114A5A
:10278000114308E02168012F12D041F0004121607F
:10279000216841EA05412160216841F00201216080
:1027A0000168C903FCD4FEF7B5F94046BDE8F081E5
:1027B00021F000412160216821EA0541EBE700009A
:1027C000143C02400000F70F10B5012286B0FF282C
:1027D00012D000230093CDE902010220019204905F
:1027E000FEF7F4F905A96846FEF71CF90446FEF762
:1027F00087F906B0204610BD0092EEE72DE9F041C2
:1028000016460D460746FEF7E1F9002407E00023CF
:102810003A5D31191846FEF79BF98046641CAC42BC
:10282000F5D3FEF76DF94046BDE8F08100B587B0FD
:10283000FEF77AF96846FEF743F9FEF76BF902985E
:1028400007B080B200BD0000FEF7E2FAFEF7DAFF43
:10285000FEF742FF0E490D4808600846FEF7BDF836
:102860000D480C490C2201604FF4E1314160002118
:102870008160C160C0E904128161C161FEF706FE9A
:1028800003480C380078FFF7DBFE00000030024000
:102890000C00002000480040240000200FB400B5C8
:1028A00095B017AA68461699FFF7C6F86846FDF76F
:1028B000DCFC82B24FF0FF3369460348FEF7ADFE01
:1028C00015B05DF814FB000024000020A0F10051B9
:1028D000B1F5E03F13D30C490144B1F5804F0ED35D
:1028E0000A490144B1F5803F09D3A0F10061B1F577
:1028F000001F04D306490844B0F5F04F01D2002070
:1029000070470120704700000040FEDF0000FEDF3E
:10291000000001E0000000000000000001020304CC
:102920000607080900000000010203044C29000802
:1029300000000020240000007C1A00087029000814
:1029400024000020640500008C1A00080051525336
:10295000545556575A0000000000000000000000C7
:102960000100000010000000000000000024F4003E
:04000005080001AD41
:00000001FF
