:020000040800F2
:1000000000000320C5150008151600081516000885
:100010001516000815160008151600080000000047
:10002000000000000000000000000000151600089D
:100030001516000800000000151600084B130008F4
:1000400015160008151600081516000815160008E4
:1000500015160008151600081516000815160008D4
:1000600015160008151600081516000815160008C4
:1000700015160008151600081516000815160008B4
:1000800015160008151600081516000815160008A4
:100090001516000815160008151600081516000894
:1000A0001516000815160008151600081516000884
:1000B0001516000815160008151600081516000874
:1000C0001516000815160008151600081516000864
:1000D0001516000815160008151600081516000854
:1000E0001516000815160008151600081516000844
:1000F0001516000815160008151600081516000834
:100100001516000815160008151600081516000823
:100110001516000815160008151600081516000813
:100120001516000815160008151600081516000803
:1001300015160008151600081516000815160008F3
:1001400015160008151600081516000815160008E3
:1001500015160008151600081516000815160008D3
:1001600015160008151600081516000815160008C3
:1001700015160008151600081516000800000000E6
:1001800015160008151600081516000815160008A3
:100190001516000815160008151600081516000893
:0C01A000151600081516000815160008BA
:1001B00010B5054C237833B9044B13B10448AFF3A1
:1001C00000800123237010BD70000020000000009B
:1001D000981E000808B5034B1BB103490348AFF351
:1001E000008008BD0000000074000020981E000878
:1001F00053B94AB9002908BF00281CBF4FF0FF318E
:100200004FF0FF3000F072B9ADF1080C6DE904CE8B
:1002100000F006F8DDF804E0DDE9022304B07047E1
:100220002DE9F047089E04468846002B4BD18A42B0
:10023000154667D9B2FA82F24AB1C2F1200701FA33
:1002400002F320FA07F7954047EA030894404FEA83
:10025000154E230CB8FBFEF71FFA85FC0EFB178822
:1002600043EA084307FB0CF1994209D9EB1807F15F
:10027000FF3080F01B81994240F21881023F2B44ED
:100280005B1AA4B2B3FBFEF00EFB103344EA034446
:1002900000FB0CFCA44509D92C1900F1FF3380F0B8
:1002A0000781A44540F2048102382C4440EA07400B
:1002B000A4EB0C0400271EB1D4400023C6E9004380
:1002C0003946BDE8F0878B4209D9002E00F0EB805B
:1002D0000027C6E9000138463946BDE8F087B3FA81
:1002E00083F7002F47D18B4202D3824200F2FA807B
:1002F000841A61EB030301209846002EE0D0C6E982
:100300000048DDE702B9FFDEB2FA82F2002A40F0CF
:100310008F80491B4FEA154E1FFA85F80127B1FB64
:10032000FEFC230C0EFB1C1143EA014308FB0CF1FD
:10033000994207D9EB180CF1FF3002D2994200F232
:10034000CD808446591AA3B2B1FBFEF00EFB101407
:1003500043EA044408FB00F8A04507D92C1900F132
:10036000FF3302D2A04500F2B6801846A4EB080481
:1003700040EA0C409FE7C7F1200CBB4022FA0CFE7C
:100380004EEA030E01FA07F420FA0CF521FA0CF3F9
:100390004FEA1E482543B3FBF8F92C0C08FB193330
:1003A0001FFA8EFA44EA034309FB0AF49C4202FA5C
:1003B00007F200FA07F10BD91EEB030309F1FF3036
:1003C00080F087809C4240F28480A9F10209734446
:1003D0001B1BADB2B3FBF8F008FB103345EA034436
:1003E00000FB0AFAA24508D91EEB040400F1FF3312
:1003F0006BD2A24569D90238744440EA0940A0FB97
:100400000289A4EB0A044C45C2464B4654D351D052
:10041000002E69D0B1EB0A0564EB030404FA0CFC6E
:10042000FD40FC404CEA0505C6E90054002747E7BB
:10043000C2F1200320FA03F7954001FA02F021FAF5
:1004400003F34FEA154E3843010CB3FBFEF71FFAD6
:1004500085F80EFB173341EA034107FB08F38B4293
:1004600004FA02F407D9691807F1FF3C2FD28B4236
:100470002DD9023F2944CB1A81B2B3FBFEF00EFB0B
:10048000103341EA034100FB08F38B4207D9691896
:1004900000F1FF3C17D28B4215D902382944C91A02
:1004A00040EA07473BE73746304609E70746E7E6B5
:1004B0001846FBE64145ABD2B8EB020A69EB0E02E7
:1004C00001381346A4E76046E9E7184695E7674612
:1004D000D1E781467CE702382C4447E7ACF1020CB7
:1004E0002B442FE7384608E73746E9E6704700BF58
:1004F000034613F8012B002AFBD1181A0138704764
:1005000001F0FF01102A2BDB10F0070F08D010F8C4
:10051000013B013A8B422DD010F0070F42B3F6D1C8
:10052000F0B441EA012141EA014122F007047FF0E1
:1005300000070023F0E80256083C85EA010586EA38
:10054000010685FA47F5A3FA87F586FA47F6A5FA74
:1005500087F68EB9EED1F0BC01F0FF0102F0070280
:1005600032B110F8013B013A83EA010313B1F8D12B
:100570000020704701387047002D06BF354603380C
:10058000073815F0010F07D1013015F4807F02BF45
:10059000013015F4C03F0130F0BC0138704700BF96
:1005A00010B504460E4B18784FF47A73B3FBF0F392
:1005B0000C4A1068B0FBF3F000F096F868B90F2C05
:1005C00001D901200AE0002221464FF0FF3000F05F
:1005D00049F8034B5C60002000E0012010BD00BF23
:1005E000000000200800002008B50B4B1A6842F4F8
:1005F00000721A601A6842F480621A601A6842F443
:1006000080721A60032000F01BF80020FFF7C8FF7B
:1006100000F06EFF002008BD003C0240034A116854
:10062000034B1B780B441360704700BF98000020F9
:1006300000000020014B1868704700BF98000020A0
:10064000074AD36823F4E0631B041B0C000200F488
:10065000E060184340F0BF6040F40030D060704765
:1006600000ED00E030B4174BDB68C3F30223C3F1A5
:100670000704042C28BF04241D1D062D18D9033B94
:100680004FF0FF3505FA04F421EA0401994005FA18
:1006900003F322EA0303194300280BDB0901C9B263
:1006A00000F1604000F5614080F8001330BC7047F5
:1006B0000023E5E700F00F000901C9B2024B19540D
:1006C000F4E700BF00ED00E014ED00E0002807DBD8
:1006D00000F01F02400901239340024A42F82030F3
:1006E000704700BF00E100E00138B0F1807F0AD21E
:1006F000064B5860064AF02182F8231000209860CB
:1007000007221A6070470120704700BF10E000E028
:1007100000ED00E0042805D0054A136823F0040327
:1007200013607047024A136843F004031360704774
:1007300010E000E0704708B5FFF7FCFF08BD0000BF
:1007400000230F2B00F2E380F0B583B039E00922DB
:1007500000E00022AA403A4302346D4D45F82420BF
:100760006C4A1468F24302EA04054F6817F4803FAC
:1007700001D046EA0405674C2560646802EA040576
:100780004F6817F4003F01D046EA0405614C6560EC
:10079000A46802EA04054F6817F4801F01D046EAF6
:1007A00004055C4CA560E46822404D6815F4001F08
:1007B00001D046EA0402574CE26001330F2B00F2ED
:1007C000A48001229A400C6804EA0206B242F4D1E5
:1007D0004C68651E012D03D9112C01D0122C12D1A9
:1007E00085685F000324BC4025EA0405CC68BC4052
:1007F0002C438460456825EA02054C68C4F3001266
:100800009A402A434260C4685F000322BA40D24340
:1008100014408D68BD402543C5604C68022C01D052
:10082000122C13D1DD08083550F825E003F0070439
:100830004FEA840C0F2404FA0CF42EEA040E0C691F
:1008400004FA0CF444EA0E0440F8254004682240FF
:100850004C6804F00304BC40224302604A6812F072
:10086000805FAAD0002201922B4A546C44F4804449
:100870005464526C02F480420192019A9C08A51CB7
:10088000234A52F8257003F0030295000F22AA4074
:1008900027EA0207214A90423FF45BAF02F58062EB
:1008A000904222D002F58062904220D002F5806210
:1008B00090421ED002F5806290421CD002F5806208
:1008C00090421AD002F58062904218D002F5806200
:1008D000904216D002F58062904214D002F58062F8
:1008E00090423FF434AF0A2234E7012232E7022279
:1008F00030E703222EE704222CE705222AE706220E
:1009000028E7072226E7082224E703B0F0BD704756
:1009100000380140003C0140003802400000024025
:10092000002800F0E48170B582B00446036813F03B
:10093000010F3BD0A74B9B6803F00C03042B2CD07A
:10094000A44B9B6803F00C03082B21D06368B3F51C
:10095000803F4FD0B3F5A02F52D09E4B1A6822F49F
:1009600080321A601A6822F480221A606368002BB1
:1009700050D0FFF75FFE0546964B1B6813F4003F0F
:1009800014D1FFF757FE401B6428F5D90320B3E1CB
:10099000904B5B6813F4800FD8D08E4B1B6813F418
:1009A000003F03D06368002B00F0A381236813F09D
:1009B000020F55D0874B9B6813F00C0F3ED0854B30
:1009C0009B6803F00C03082B33D0E368002B68D03E
:1009D000814B01221A60FFF72DFE05467D4B1B68F7
:1009E00013F0020F54D1FFF725FE401B0228F5D962
:1009F000032081E1774A136843F480331360B5E73D
:100A0000744B1A6842F480221A601A6842F48032E9
:100A10001A60ABE7FFF70EFE05466E4B1B6813F43A
:100A2000003FC3D0FFF706FE401B6428F5D9032022
:100A300062E1684B5B6813F4800FC6D1654B1B689D
:100A400013F0020F04D0E368012B01D0012053E121
:100A5000604A136823F0F803216943EAC103136075
:100A6000236813F0080F40D0636963B35B4B012226
:100A70001A60FFF7DFFD0546564B5B6F13F0020F60
:100A800033D1FFF7D7FD401B0228F5D9032033E10E
:100A9000504A136823F0F803216943EAC103136045
:100AA000DEE74D4B00221A60FFF7C4FD0546494BB7
:100AB0001B6813F0020FD3D0FFF7BCFD401B0228C8
:100AC000F5D9032018E1454B00221A60FFF7B2FD6B
:100AD0000546404B5B6F13F0020F06D0FFF7AAFDEF
:100AE000401B0228F5D9032006E1236813F0040F08
:100AF00079D0384B1B6C13F0805F33D10023019306
:100B0000344B1A6C42F080521A641B6C03F0805311
:100B10000193019B0125324B1B6813F4807F23D086
:100B2000A368012B34D0052B38D02A4B1A6F22F042
:100B300001021A671A6F22F004021A67A368002BD9
:100B400036D0FFF777FD0646224B1B6F13F0020FDE
:100B500048D1FFF76FFD801B41F288339842F3D9EB
:100B60000320C9E00025D6E71D4A136843F48073CB
:100B70001360FFF75FFD0646194B1B6813F4807F77
:100B8000CED1FFF757FD801B0228F5D90320B3E033
:100B9000104A136F43F001031367CFE70D4B1A6F31
:100BA00042F004021A671A6F42F001021A67C5E7A1
:100BB000FFF740FD0646074B1B6F13F0020F11D0E5
:100BC000FFF738FD801B41F288339842F3D90320A8
:100BD00092E000BF0038024000004742800E4742CA
:100BE00000700040EDB9A369002B00F08480454AF5
:100BF000926802F00C02082A51D0022B17D0424B07
:100C000000221A60FFF716FD04463E4B1B6813F0E6
:100C1000007F42D0FFF70EFD001B0228F5D903200C
:100C20006AE0384A136C23F080531364DBE7364BD9
:100C300000221A60FFF7FEFC0546324B1B6813F0DA
:100C4000007F06D0FFF7F6FC401B0228F5D90320F1
:100C500052E0E369226A1343626A43EA8213A26A9A
:100C60005208013A43EA0243E26A43EA0263254A30
:100C70005360254B01221A60FFF7DCFC0446214B30
:100C80001B6813F0007F06D1FFF7D4FC001B02287D
:100C9000F5D9032030E000202EE000202CE0012BCD
:100CA0002CD0184B9B6803F48001E269914201D07B
:100CB000012021E003F03F02216A8A4201D0012095
:100CC0001AE0616A47F6C0721A408A4201D00120D8
:100CD00012E003F44032A16A8A4201D001200BE005
:100CE00003F07063E26A93420AD0012004E001201D
:100CF0007047012000E0002002B070BD0120FBE73A
:100D00000020F9E70038024060004742324B9B6800
:100D100003F00C03042B5CD0082B01D02F48704744
:100D20002DE9F04B2C4B5A6802F03F025B6813F43C
:100D3000800F2BD0284B5B68C3F388131E46002717
:100D40005C010025E41A65EB0705A90141EA9461FD
:100D5000A001001B61EB0501CB0043EA5073C40006
:100D6000A01943EB07014B0243EAD053440220464B
:100D700019460023FFF73CFA174B5B68C3F30143A6
:100D800001335B00B0FBF3F0BDE8F08B124B5B6806
:100D9000C3F388131E4600275C010025E41A65EBA7
:100DA0000705A90141EA9461A001001B61EB05015F
:100DB000CB0043EA5073C400A01943EB07018B0238
:100DC00043EA90538402204619460023FFF710FAA5
:100DD000D2E70348704700BF003802400024F40007
:100DE00000127A00002800F09E8070B50446504B37
:100DF0001B6803F00F038B4209D2CBB24C4A13702D
:100E0000136803F00F038B4201D0012070BD2368EB
:100E100013F0020F17D013F0040F04D0454A936863
:100E200043F4E0539360236813F0080F04D0414A61
:100E3000936843F4604393603E4A936823F0F00361
:100E4000A068034393600D46236813F0010F32D06E
:100E50006368012B21D09A1E012A25D9354A1268D0
:100E600012F0020F61D033498A6822F00302134363
:100E70008B60FFF7DFFB06462E4B9B6803F00C03ED
:100E80006268B3EB820F16D0FFF7D4FB801B41F2F0
:100E900088339842F0D90320B8E7264A126812F442
:100EA000003FE0D10120B1E7224A126812F0007F32
:100EB000D9D10120AAE71E4B1B6803F00F03AB42F8
:100EC00009D9EAB21A4B1A701B6803F00F03AB4240
:100ED00001D001209AE7236813F0040F06D0154AC9
:100EE000936823F4E053E1680B439360236813F0A5
:100EF000080F07D00F4A936823F46043216943EA3F
:100F0000C1039360FFF702FF0A4B9B68C3F303130F
:100F1000094AD35CD840094B1860094B1868FFF7A1
:100F20003FFB002072E70120704701206EE700BF01
:100F3000003C024000380240B01E000808000020BB
:100F400004000020014B1868704700BF0800002013
:100F500008B5FFF7F7FF044B9B68C3F38223034AEE
:100F6000D35CD84008BD00BF00380240C01E000856
:100F700008B5FFF7E7FF044B9B68C3F34233034A0E
:100F8000D35CD84008BD00BF00380240C01E000836
:100F90002DE9F04B04460268136923F44053C168FD
:100FA0000B43136183680269134342691343C269A7
:100FB0001A430168CB6823F4164323F00C03134350
:100FC000CB600268536923F4407381690B4353611A
:100FD000C369B3F5004F3BD00368714A934200F0F8
:100FE000AB8002F58062934200F0A680FFF7B0FF6D
:100FF0004FF00009061849EB090716EB000B47EB09
:10100000090C4FEACC0343EA5B734FEACB029346E9
:101010009C4663689A009B0F10EB0B0049EB0C0198
:10102000FFF7E6F85F4DA5FB00325109642202FB91
:10103000110213013233A5FB03235B0903F0F00215
:1010400002EB011203F00F03216813448B60A4E04C
:101050000368534A934239D002F58062934235D0F7
:10106000FFF776FF83464FF0000C06184CEB0C0799
:1010700016EB000847EB0C094FEAC90343EA587323
:101080004FEAC8029046994662680021921841EBE7
:1010900001031BEB08004CEB0901FFF7A9F8414DD8
:1010A000A5FB00325109642202FB1102D300323346
:1010B000A5FB03235B095A0002F4F87202EB01124C
:1010C00003F00703216813448B6066E0FFF750FFCD
:1010D00080464FF00009061849EB090716EB000B94
:1010E00047EB090C4FEACC0343EA5B734FEACB02B0
:1010F00093469C4662680021921841EB010318EB6D
:101100000B0049EB0C01FFF773F8264DA5FB0032ED
:101110005109642202FB1102D3003233A5FB0323E1
:101120005B095A0002F4F87202EB011203F00703A4
:10113000216813448B6030E0FFF71AFF4FF000097D
:10114000061849EB090716EB000B47EB090C4FEAB1
:10115000CC0343EA5B734FEACB0293469C46636839
:101160009A009B0F10EB0B0049EB0C01FFF740F8C6
:101170000C4DA5FB00325109642202FB1102130140
:101180003233A5FB03235B0903F0F00202EB0112EB
:1011900003F00F03216813448B60BDE8F08B00BFA0
:1011A000001001401F85EB512DE9F04105460F4627
:1011B00016469846069C2B681B6837EA03030CBF4B
:1011C00001230023B3421DD1B4F1FF3FF3D02CB172
:1011D000FFF730FAA0EB0800A042ECD92A68D368E8
:1011E00023F4D073D3602A68536923F00103536159
:1011F000202385F8393085F83A30002385F83830D7
:10120000032000E00020BDE8F08158B310B504468B
:1012100090F839300BB3242384F839302268D3682E
:1012200023F40053D3602046FFF7B2FE226813690F
:1012300023F4904313612268536923F02A03536116
:101240002268D36843F40053D3600020E063202376
:1012500084F8393084F83A3010BD80F8383000F026
:1012600065F9D8E7012070472DE9F04383B01E46A9
:1012700090F83930DBB2202B56D104460D4690460B
:10128000002956D0002A56D090F83830012B54D07F
:10129000012380F838304FF00009C0F83C9021233A
:1012A00080F83930FFF7C6F90746A4F82480A4F87F
:1012B000268084F8389010E000963B46002280217A
:1012C0002046FFF771FF002839D12B882268C3F32D
:1012D000080353602369C3B90235E38C9BB2B3B1F1
:1012E000E38C013B9BB2E384A368B3F5805FE3D05A
:1012F00000963B46002280212046FFF755FF00BBA9
:101300002A7823685A600135E7E70135E5E700965A
:101310003B46002240212046FFF746FF034690B996
:10132000202284F8392000E00223184603B0BDE8EB
:10133000F0830123F9E70123F7E70223F5E703230D
:10134000F3E70323F1E70323EFE708B5FFF766F9B7
:10135000FFF7F1F908BDFEE708B50948094B03603E
:101360004FF4E133436000238360C3600361836112
:101370000C234361FFF749FF00B908BDFFF7EBFFFE
:101380009C0000200048004000B593B0FFF72CF906
:101390002822002108A800F063F9012306934FF4E6
:1013A000A023079306A8FFF7BBFA08B1FFF7D3FF06
:1013B000012302930F230193802303934FF480535F
:1013C00004930593002101A8FFF70CFD08B1FFF776
:1013D000C2FF00253F4B1D604FF47A60FFF784F990
:1013E0000420FFF797F9FFF7B7FF3B4C2046FFF7C4
:1013F0007FF802462946204600F032F9FFF786FCC6
:1014000002463649204600F033F92046FFF770F8CF
:101410004FF0FF3382B221463148FFF725FF08B174
:10142000FFF799FF2C4C2046FFF762F80246002197
:10143000204600F015F9FFF785FD024629492046B0
:1014400000F016F92046FFF753F84FF0FF3382B251
:1014500021462348FFF708FF08B1FFF77CFF1E4C29
:101460002046FFF745F802460021204600F0F8F834
:10147000FFF76EFD02461C49204600F0F9F82046B1
:10148000FFF736F84FF0FF3382B221461448FFF7DA
:10149000EBFE08B1FFF75FFF0F4C2046FFF728F87F
:1014A00002460021204600F0DBF8FFF761FD02460E
:1014B0000E49204600F0DCF82046FFF719F84FF0FF
:1014C000FF3382B221460648FFF7CEFE00B9FEE7A1
:1014D000FFF741FF00004742DC000020C81E000863
:1014E0009C000020D81E0008E81E0008F81E000816
:1014F00008B50320FFF7A4F80B4A536A43F4E0232E
:101500005362002211466FF00B00FFF7ABF8002288
:1015100011466FF00A00FFF7A5F8002211466FF0A0
:101520000900FFF79FF808BD00ED00E070B588B036
:10153000002401941A4B1A6C42F480221A641A6C2B
:1015400002F480220192019A02941A6B42F008027E
:101550001A631B6B03F008030293029B022304939C
:101560000123059306940723079308AD4FF4807376
:1015700045F8143D0B4E29463046FFF7E1F84FF48D
:101580000073039329463046FFF7DAF82720FFF768
:101590009DF822460F212720FFF764F808B070BDA0
:1015A00000380240000C0240054BD3F8882042F47A
:1015B0007002C3F888204FF000629A60704700BF45
:1015C00000ED00E0DFF834D0002103E00C4B5B5865
:1015D000435004310B480C4B42189A42F6D30B4A45
:1015E00002E0002342F8043B094B9A42F9D3FFF78B
:1015F000DBFF00F011F8FFF7C7FE70470000032083
:101600004C1F000800000020700000207000002027
:10161000E0040020FEE7000070B50D4E0D4CA41B49
:10162000A4100025A54209D10B4E0C4C00F034FC4F
:10163000A41BA4100025A54205D170BD56F8253085
:1016400098470135EEE756F8253098470135F2E71F
:10165000441F0008441F0008441F0008481F0008DA
:1016600002440346934200D1704703F8011BF9E797
:101670000EB400B59CB01DAB029006906FF0004117
:10168000094807910491094953F8042B0591006812
:10169000019302A900F066F8029B00221A701CB0A8
:1016A0005DF804EB03B070470C0000200802FFFF58
:1016B0002DE9F0478E689E4282460C469046994638
:1016C00037D88A8912F4906F31D0256809696F1A6A
:1016D0006569022305EB450595FBF3F509F1010367
:1016E0003B449D4238BF1D46530530D5294600F086
:1016F0002BFB064650B90C23CAF80030A38943F0EF
:101700004003A3814FF0FF30BDE8F0873A462169DE
:1017100000F0A8FAA38923F4906343F08003A38127
:10172000266165613E44ED1B2660A5604E464E4530
:1017300000D94E4632464146206800F09EFAA36822
:101740009B1BA36023681E4426600020DCE72A461A
:1017500000F054FB06460028E2D12169504600F013
:10176000A5FAC8E72DE9F04F1D468B891F069DB0ED
:1017700080460C4616460FD50B696BB9402100F028
:10178000E3FA2060206128B90C23C8F800304FF03C
:10179000FF30C8E0402363610023099320238DF8C4
:1017A000293030238DF82A3003954FF0010B37464E
:1017B0003D4615F8013B0BB1252B3ED1B7EB060A90
:1017C0000BD05346324621464046FFF771FF0130A9
:1017D00000F0A480099B534409933B78002B00F050
:1017E0009D8000234FF0FF32CDE90523049307933A
:1017F0008DF853301A932F46052217F8011B5048D5
:10180000FEF77EFE049BD0B9D90644BF20228DF896
:1018100053201A0744BF2B228DF853202A782A2AF6
:1018200015D0079A2F4600200A25394611F8013BAA
:10183000303B092B4DD9B8B10FE02F46B8E7404AED
:10184000801A0BFA00F0184304903D46D3E7039A40
:10185000111D12680391002A01DB079204E0524235
:1018600043F00203079204933B782E2B0CD17B7834
:101870002A2B33D1039B1A1D1B680392002BB8BF80
:101880004FF0FF33023705932E4D39780322284657
:10189000FEF736FE38B14023401B03FA00F0049BEC
:1018A000034301370493397827488DF8281006221E
:1018B0007E1CFEF725FE002838D0244B13BB039B6B
:1018C000073323F0070308330393099B4B44099321
:1018D0006DE705FB023201200F46A6E70023013722
:1018E000059319460A25384610F8012B303A092A83
:1018F00003D9002BC8D00591C6E705FB01210123C0
:101900000746F0E703AB00932246114B04A940467B
:10191000AFF30080B0F1FF3F8146D6D1A3895B06CB
:101920003FF535AF09981DB0BDE8F08F03AB0093CC
:101930002246074B04A9404600F082F8EAE700BFC0
:10194000081F00080E1F0008121F000800000000FA
:10195000B11600082DE9F04791461F468A680B69C9
:10196000DDF820809342B8BF1346C9F8003091F8E3
:10197000432006460C4612B10133C9F800302368F3
:10198000990642BFD9F800300233C9F80030256803
:1019900015F0060507D104F1190AE368D9F800200B
:1019A0009B1AAB4228DC94F843302268003318BFFE
:1019B000012392062DD404F1430239463046C04734
:1019C000013020D02368E568D9F8002003F0060331
:1019D000042B08BFAD1AA36822690CBF25EAE57580
:1019E00000259342C4BF9B1AED184FF000091A342A
:1019F0004D451AD1002008E00123524639463046B1
:101A0000C047013003D14FF0FF30BDE8F08701350A
:101A1000C3E7E1185A1C302081F84300224494F8AF
:101A2000451082F843100233C5E7012322463946A8
:101A30003046C0470130E6D009F10109D8E700007F
:101A40002DE9F04301F1430C0C46097E85B06E2967
:101A50001746064698460C9A00F0B38022D86329B0
:101A600036D00AD8002900F0B980582900F08380C8
:101A700004F1420584F8421032E0642901D069295A
:101A8000F6D120681368050603F104012AD51B6806
:101A90001160002B03DA2D225B4284F843206F484B
:101AA0000A2239E0732900F09D8008D86F2920D0E0
:101AB0007029DDD1236843F02003236003E07529FA
:101AC00017D07829D4D1782384F84530644855E07C
:101AD0001368191D1B68116004F1420584F8423037
:101AE00001238CE01B68116010F0400F18BF1BB27F
:101AF000CFE713682568181D1060280601D51B68FC
:101B000002E06806FBD51B8854486F2914BF0A22DF
:101B10000822002184F843106568A560002DC0F2FA
:101B20009580216821F004012160002B3DD1002D1A
:101B300040F08E806546082A0BD12368DB0708D564
:101B4000236962689A42DEBF302305F8013C05F143
:101B5000FF35ACEB05032361CDF800803B4603AABB
:101B600021463046FFF7F6FE01304DD14FF0FF30F1
:101B700005B0BDE8F083394884F845101368216842
:101B80001D1D1B6815600A060BD5CA0744BF41F02E
:101B9000200121601BB9226822F02002226010225D
:101BA000B7E74D0648BF9BB2EFE76546B3FBF2F1DE
:101BB00002FB1133C35C05F8013D0B460029F5D14A
:101BC000B9E7136825686169181D106028061B684D
:101BD00001D5196002E06A06FBD519800023236154
:101BE0006546B9E71368191D11601D686268002118
:101BF0002846FEF785FC08B1401B606063682361DE
:101C0000002384F84330A7E723692A463946304643
:101C1000C0470130AAD023689B0713D4E068039B18
:101C20009842B8BF1846A3E701234A4639463046D2
:101C3000C04701309AD00135E368039A9B1AAB4242
:101C4000F2DCEBE7002504F11909F5E7002BACD134
:101C5000037884F8423004F142056CE7191F00084C
:101C60002A1F000810B5431E0A44914200D110BD3E
:101C700011F8014B03F8014FF7E7884210B501EB6B
:101C8000020307D8421E99420AD011F8014B02F80C
:101C9000014FF8E78342F5D98118D21AD34200D117
:101CA00010BD13F8014D01F8014DF7E738B50546B1
:101CB000002945D051F8043C0C1F002BB8BFE41894
:101CC00000F0D2F81F4A1368104633B963601460FD
:101CD0002846BDE8384000F0C8B8A3420CD92168B6
:101CE0006218934204BF1A685B68636004BF5218AD
:101CF00022600460ECE713465A680AB1A242FAD99E
:101D000019685818A0420BD1206801445818824223
:101D10001960DDD1106852685A6001441960D7E734
:101D200002D90C232B60D3E7206821188A4204BF14
:101D300011685268626004BF091821605C60C7E7DF
:101D400038BD00BF8C00002070B5CD1C25F0030508
:101D500008350C2D38BF0C25002D064601DBA942A5
:101D600003D90C233360002070BD00F07DF8214AB8
:101D70001468214691B9204C23681BB9304600F005
:101D800063F820602946304600F05EF8431C24D1F9
:101D90000C233360304600F068F8E4E70B685B1B07
:101DA00018D40B2B0FD90B60CD50CC18304600F057
:101DB0005CF804F10B00231D20F00700C31AD3D0F8
:101DC0005A42E250D0E78C424B6816BF6360136002
:101DD0000C46EBE70C464968CCE7C41C24F003042E
:101DE000A04205D0211A304600F02EF80130CFD0A5
:101DF0002560DBE78C00002090000020F8B5074646
:101E000014460E4621B91146BDE8F840FFF79CBFC5
:101E100022B9FFF74BFF25462846F8BD00F026F80B
:101E2000A0420FD221463846FFF78EFF0546002814
:101E3000F2D031462246FFF715FF31463846FFF70C
:101E400035FFE9E73546E7E738B5064C0023054698
:101E50000846236000F012F8431C02D1236803B146
:101E60002B6038BDDC0400207047704751F8043CFB
:101E7000181F002BBCBF0B58C0187047044A0549F7
:101E80001368002B08BF0B461844106018467047B3
:101E900094000020E0040020F8B500BFF8BC08BCA6
:101EA0009E467047F8B500BFF8BC08BC9E46704718
:101EB00000000000000000000102030406070809FA
:101EC0000000000001020304535953434C4B3A20D5
:101ED000256C64200D0A000048434C4B3A20256CC9
:101EE00064200D0A0000000050434C4B313A20257D
:101EF0006C64200D0A00000050434C4B3220256CCE
:101F000064200D0A00000000232D302B2000686C97
:101F10004C0065666745464700303132333435360C
:101F20003738394142434445460030313233343545
:0C1F300036373839616263646566000072
:081F3C00E4E2FF7F0100000058
:041F4400D5010008BB
:041F4800B1010008DB
:101F4C0001000000100000000024F400100000202C
:101F5C000000000000000000000000000000000075
:101F6C000000000000000000000000000000000065
:101F7C000000000000000000000000000000000055
:101F8C000000000000000000000000000000000045
:101F9C000000000000000000000000000000000035
:101FAC000000000000000000000000000000000025
:04000005080015C515
:00000001FF
